S010000048726F6E6F562E312E7372656359
S11300000C941D020C94FA050C94C6050C943A0247
S11300100C943A020C943A020C943A020C943A026C
S11300200C943A020C943A020C943A020C943A025C
S11300300C943A020C943A020C943A020C943A024C
S11300400C9440060C943A020C949A090C947C0982
S11300500C943A020C943A020C943A020C943A022C
S11300600C943A020C943A026E616E00696E66005A
S113007000407A10F35A00A0724E18090010A5D45B
S1130080E80000E87648170000E40B54020000CAB8
S11300909A3B000000E1F5050000809698000000FE
S11300A040420F000000A08601000000102700005D
S11300B00000E803000000006400000000000A00E3
S11300C0000000000100000000002C76D888DC67E6
S11300D04F0823DFC1DFAE59E1B1B796E5E3E4533E
S11300E0C63AE651997696E8E6C28426EB898C9B5B
S11300F062ED407C6FFCEFBC9C9F40F2BAA56FA5FB
S1130100F490055A2AF75C936B6CF9676DC11BFC7C
S1130110E0E40D47FEF520E6B500D0ED902E030097
S1130120943577050080841E080000204E0A0000E4
S113013000C80C333333330F986E12831141EF8DA3
S11301402114893BE65516CFFEE6DB18D1844B38E3
S11301501BF77C1D901DA4BBE424203284725E2214
S11301608100C9F124ECA1E53D274578697400427A
S1130170756C6C6574206D6173733A20252E31663D
S11301802067004C616E6775616765203A202573AE
S1130190004D6F6465203A20257300BC5F9C60A409
S11301A0618462B6639664B0659F66B567FFFF00BD
S11301B000000000000000002F00000000070007FE
S11301C00000147F147F1400242A7F2A1200626422
S11301D0081323003649552250000005030000008F
S11301E0001C224100000041221C000014083E08AB
S11301F0140008083E0808000000A0600000080879
S113020008080800006060000000201008040200D4
S11302103E5149453E0000427F4000004261514941
S113022046002141454B31001814127F1000274528
S1130230454539003C4A494930000171090503002C
S1130240364949493600064949291E000036360018
S11302500000005636000000081422410000141467
S1130260141414000041221408000201510906006C
S1130270324959513E007C1211127C007F49494990
S113028036003E41414122007F4141221C007F490A
S1130290494941007F09090901003E4149497A0061
S11302A07F0808087F0000417F4100002040413F53
S11302B001007F08142241007F40404040007F023B
S11302C00C027F007F0408107F003E4141413E0044
S11302D07F09090906003E4151215E007F09192961
S11302E0460046494949310001017F0101003F4070
S11302F040403F001F2040201F003F4038403F0047
S11303006314081463000708700807006151494525
S11303104300007F41410000552A552A5500004101
S1130320417F0000040201020400404040404000BC
S11303300001020400002054545478007F484444CF
S11303403800384444442000384444487F0038543A
S113035054541800087E0901020018A4A4A47C00C7
S11303607F080404780000447D4000004080847DC0
S113037000007F102844000000417F4000007C04FE
S1130380180478007C080404780038444444380095
S1130390FC242424180018242418FC007C080404D9
S11303A00800485454542000043F444020003C407A
S11303B040207C001C2040201C003C4030403C007D
S11303C04428102844001CA0A0A07C004464544C81
S11303D04400000877410000000063000000004171
S11303E0770800000804080804003A4040207A0016
S11303F03D4040403D002154545479007D12111277
S11304007D003944444439003D4242423D000205E6
S1130410020000007E01495573007C1010081CAED8
S11304202000B0C8001040813FA1A6A83FA4D3007B
S1130430D5F0D922DA12DB208D1411241FBECFEFA0
S1130440D8E0DEBFCDBF11E0A0E0B1E0EEE7F2E21C
S113045002C005900D92AC39B107D9F726E0ACE99A
S1130460B1E001C01D92A236B207E1F70E94140563
S11304700C943D110C94000020919E0130E0A901E0
S113048002C0559547958A95E2F7CA01817008958F
S1130490E0E0F1E043E051E061E070E086B12191F9
S11304A090E0022E02C0959587950A94E2F780FFAA
S11304B033C030919E01832F90E0022E02C09595A7
S11304C087950A94E2F780FF12C041E050E002C031
S11304D0440F551F2A95E2F7842F80958323809338
S11304E09E0180919D01482B40939D010895809128
S11304F09D0190E0022E02C0959587950A94E2F73B
S113050080FD37C0CB0102C0880F991F2A95E2F7FE
S1130510832B80939E0129C030919D01832F90E00D
S1130520022E02C0959587950A94E2F780FF11C0C8
S1130530CB0102C0880F991F2A95E2F7982F909556
S1130540392330939D0190919C01892B80939C01C8
S11305500CC0CB0102C0880F991F2A95E2F7809541
S113056090919C01892380939C01E417F50709F07D
S113057095CF089588E08093C4001092C50088E95F
S11305808093C10017B887E088B91AB814BC15BCA9
S113059016BC17BC18BC81E080936E008FE080937A
S11305A0690083E08DBB8CBB109268008FEA0E94C7
S11305B09F0783E00E94780908958F929F92AF92DB
S11305C0BF92CF92DF92EF92FF920F931F93CF933C
S11305D0DF93C090A305D090A405E090A505F0900A
S11305E0A60520E030E0A901C701B6010E94D60D9E
S11305F018160CF094C020E030E04AE754E4C70138
S1130600B6010E94DB0D9B01AC016DEC7CEC8CEC23
S11306109DE30E94DB0D6B017C01C3EAD5E06C8392
S11306207D838E839F8320E030E04AE754E4609129
S113063051017091520180915301909154010E9493
S1130640DB0D4B015C01A7019601C701B6010E94B5
S1130650040F9B01AC01C501B4010E94040F20E00A
S113066030E040E05FE30E94040F688779878A875F
S11306709B878C859D858A31910534F401969093EE
S1130680B0058093AF0504C01092B0051092AF0579
S1130690E3EAF5E0A485B585AA0FBB1FAA0FBB1F2B
S11306A0AD55BA4F1E96CD92DD92ED92FC925197C4
S11306B086849784A088B188882D992DAA2DBB2D76
S11306C08093150690931606A0931706B093180608
S11306D0C5EBD5E005E116E012C0C990D990E990C8
S11306E0F990282D392D4A2D5B2DC701B6010E94A2
S11306F0FF0E181624F48C2C9D2CAE2CBF2CC01786
S1130700D10759F7882D992DAA2DBB2D8093150655
S113071090931606A0931706B093180612C0E3EA46
S1130720F5E01482158216821782108611861286CD
S11307301386109215061092160610921706109240
S11307401806DF91CF911F910F91FF90EF90DF90EA
S1130750CF90BF90AF909F908F900895BF92CF920B
S1130760DF92EF92FF920F931F93CF93DF93CDB756
S1130770DEB7A0970FB6F894DEBF0FBECDBFFE0163
S1130780319680E2DF011D928A95E9F70E947D0788
S113079060E089E00E94710785E591E00E944E09BE
S11307A00F2EF3E0EF2EF1E0FF2EF02DBB24B394D7
S11307B0FE0131966F016B2D80E00E947107870165
S11307C0D7018C91882329F08AE591E00E944E0993
S11307D004C08CE591E00E944E09F80181858823CC
S11307E009F442C0823018F1238134810780F085F6
S11307F0E02D8081E82FF0E0EE0FFF1FE20FF31FE2
S113080081818F9380818F93D80112968C91129756
S11308108F9311968C918F93DF92CF920E94BD108B
S11308200F900F900F900F900F900F9029C0D80148
S11308300580F681E02D83818F9382818F9381815E
S11308408F9380818F9312968C9112978F93119628
S11308508C918F93DF92CF920E94BD100FB6F894C3
S1130860DEBF0FBECDBF0CC082818F9381818F9379
S1130870DF92CF920E94BD100F900F900F900F90B7
S1130880C6010E944E090E945D09B394B0E1EB0ECB
S1130890F11CE5E0BE128FCFA0960FB6F894DEBF30
S11308A00FBECDBFDF91CF911F910F91FF90EF90BD
S11308B0DF90CF90BF900895DF92EF92FF920F9355
S11308C01F93CF93DF93CDB7DEB7A0970FB6F894FD
S11308D0DEBF0FBECDBFCE0101967C0180E2F701E1
S11308E011928A95E9F70E947D0782E00E944B09E4
S11308F060E080E00E94710703EA15E0F801878157
S11309008F9386818F9385818F9384818F9386E7DC
S113091091E09F938F93FF92EF920E949B10C701E7
S11309200E944E0962E080E00E947107F801F084A1
S1130930E184D28413850FB6F894DEBF0FBECDBF19
S113094020E030E040E85FE36F2D7E2D8D2D912F68
S11309500E94D60D8823F4F420E030E04AE754E402
S11309606F2D7E2D8D2D912F0E94040F9F938F93B9
S11309707F936F938EE591E09F938F93CE010196C1
S11309809F938F930E949B100FB6F894DEBF0FBE07
S1130990CDBF13C01F93DF92EF92FF9288E691E0E0
S11309A09F938F93CE0101969F938F930E949B10E8
S11309B00FB6F894DEBF0FBECDBF8E010F5F1F4F81
S11309C0C8010E944E0981E00E944B0965E080E065
S11309D00E947107E5E1F6E083818F9382818F9312
S11309E081818F9380818F9382E791E09F938F938E
S11309F01F930F930E949B10C8010E944E090E94EE
S1130A005D090FB6F894DEBF0FBECDBFA0960FB63A
S1130A10F894DEBF0FBECDBFDF91CF911F910F9130
S1130A20FF90EF90DF9008950E94BA022FEF81EEBD
S1130A3094E0215080409040E1F700C00000789499
S1130A40C3E0D1E004E00F2EF3E0FF2EF02D0E946E
S1130A507509833019F0853049F00EC00E94DD021B
S1130A600E945C0480E00E94780977C00E94AE0373
S1130A7086E00E94780971C00E947509863009F0E9
S1130A8061C0888181116EC08889811109C088A1E3
S1130A90811108C088A9882309F46AC01F2D03C0E6
S1130AA011E001C012E080E00E943C028823D1F0F2
S1130AB0112309F44FC001C0102FA0E11A9FF001C7
S1130AC01124ED5FFE4F10828FEF810FB0E18B9FF9
S1130AD0F0011124ED5FFE4F81E0808385E00E94E8
S1130AE0780938C081E00E943C028823C9F01330A1
S1130AF088F501C010E020E1129FF0011124ED5FA0
S1130B00FE4F108281E0810F90E1899FF001112452
S1130B10ED5FFE4F81E0808385E00E9478091AC072
S1130B2082E00E943C028823A9F0A0E11A9FC00140
S1130B3011248D5F9E4FDC011E96ED91FC911F9751
S1130B40099508C082E00E943C02882319F085E0E0
S1130B500E9478090E9448027ACF0E947509863063
S1130B6089F78FCF80E00E943C028111F3CF07C048
S1130B7080E00E943C0281119FCF102FB3CF81E00F
S1130B800E943C028111B6CF10E0CACF1F920F928F
S1130B900FB60F9211242F933F934F935F936F934C
S1130BA07F938F939F93AF93BF93EF93FF930E9491
S1130BB0750981110EC016BC81E085BD1092A30594
S1130BC01092A4051092A5051092A60582E00E9439
S1130BD07809FF91EF91BF91AF919F918F917F9190
S1130BE06F915F914F913F912F910F900FBE0F9096
S1130BF01F9018951F920F920FB60F9211242F93E6
S1130C003F934F935F936F937F938F939F93AF9390
S1130C10BF93CF93DF93EF93FF9315BC66B5C3EAFD
S1130C20D5E070E080E090E00E944F0E2FE632E1C4
S1130C3043E85CE30E94040F288139814A815B8187
S1130C400E946A0D688379838A839B830E94750955
S1130C50823019F483E00E947809FF91EF91DF91CB
S1130C60CF91BF91AF919F918F917F916F915F9140
S1130C704F913F912F910F900FBE0F901F90189599
S1130C801F920F920FB60F9211242F933F934F93FD
S1130C905F936F937F938F939F93AF93BF93CF9300
S1130CA0DF93EF93FF93C3EAD5E02FE632E143E805
S1130CB05CE3688179818A819B810E946A0D6883E3
S1130CC079838A839B8320E030E040EA52E40E94E7
S1130CD0FF0E18166CF415BC16BC1092A3051092E6
S1130CE0A4051092A5051092A60580E00E9478093B
S1130CF0FF91EF91DF91CF91BF91AF919F918F9130
S1130D007F916F915F914F913F912F910F900FBE03
S1130D100F901F9018950895FC01108281E0809334
S1130D20030183E00E9478090895FC01A781B0853E
S1130D308C918F5F8C93A781B0859C918185981746
S1130D4008F01C9285E00E94780908951092B90079
S1130D5088E08093B80084E08093BC00089594EA0E
S1130D609093BC0020E430E0ECEBF0E009C02150AB
S1130D70310931F480911D06816080931D06089528
S1130D8090819923A4F78093BB0084E88093BC00EE
S1130D9080E490E0ECEBF0E008C0019731F480913E
S1130DA01D06826080931D06089520812223ACF7DE
S1130DB0089584E98093BC0008958093BB0084E87F
S1130DC08093BC0080E490E0ECEBF0E008C0019775
S1130DD031F480911D06846080931D06089520815E
S1130DE02223ACF70895EF92FF920F931F93CF93B2
S1130DF0DF937C01162F88E70E94AF0680E00E94F3
S1130E00DD06112371F0E7011150012F10E00F5F8F
S1130E101F4F0E0D1F1D89910E94DD06C017D107BB
S1130E20D1F70E94D906DF91CF911F910F91FF90C6
S1130E30EF900895EF92FF920F931F93CF93DF9358
S1130E407C018B0188E70E94AF0680E40E94DD06E6
S1130E500115110549F0E7010E0D1F1D89910E942E
S1130E60DD06C017D107D1F70E94D906DF91CF91D3
S1130E701F910F91FF90EF900895CF93DF9300D0CF
S1130E8000D01F92CDB7DEB7813818F5683008F569
S1130E90EFE9F5E0808361836055698391E29A8389
S1130EA092E0980F9F709B8390E00296807F992731
S1130EB09595879595958795959587959595879516
S1130EC0805F8C838FE78D8365E0CE0101960E945D
S1130ED0F3060F900F900F900F900F90DF91CF912A
S1130EE00895982F990F890F880F0E943D07089540
S1130EF060E080E00E94710708950F931F93CF93E1
S1130F00DF930FE911E0C0E0D0E8F8018D2F1192D2
S1130F108A95E9F76C2F80E00E94710760E870E021
S1130F20C8010E941A07CF5F00581F4FC83069F7E5
S1130F300E947807DF91CF911F910F9108951F931D
S1130F40CF93DF93CDB7DEB76C970FB6F894DEBFBF
S1130F500FBECDBF182F0E94A606EFE1F4E0DE011C
S1130F6011969E01245E3F4F84918D933196A21772
S1130F70B307D1F71C8F6CE1CE0101960E94F306F2
S1130F800E947D076C960FB6F894DEBF0FBECDBFEE
S1130F90DF91CF911F9108952F923F924F925F92CC
S1130FA06F927F928F929F92BF92CF92DF92EF9235
S1130FB0FF920F931F93CF93DF93CDB7DEB72C9798
S1130FC00FB6F894DEBF0FBECDBF893001F118F41F
S1130FD0883039F052C08A30E9F18D3009F447C0C5
S1130FE04CC00FE915E0F801808190914D016181B9
S1130FF0891B0E94710780E20E94CC07F80180815E
S113100090914D016181891B0E9471072CC18091CF
S11310109F0590914D01292F30E0220F331F220F9D
S1131020331FB901680F711D45E150E01A01221AFE
S1131030330A6215730540F4990F990F6091A00566
S1131040890F0E9471070FC16091A00585E10E947C
S1131050710709C18091A005873008F004C160912F
S11310604D01680F80919F050E947107FCC060913B
S1131070A00580E00E947107F6C0B0909F050F2E76
S1131080F9E73F2EF02D3B1408F4EDC0803208F44C
S1131090EAC080524CE951E0FA019491891768F151
S11310A094919F3F09F4DFC0EBE9F1E0249190E0D3
S11310B030E0205231092817390769F060E010C088
S11310C0F901EE0FFF1FE556FE4FE491F0E0B097F3
S11310D0E817F90729F4FA0184918F3F71F4C3C02A
S11310E06F5F262F30E0A901440F551F44565E4F11
S11310F0FA0174917F3F21F7B6C090914D0192306F
S113110009F08BC04B2C512C9201245F3F4F2138A6
S1131110310508F0A8C09E012F5F3F4F790190E090
S11311204C01880C991C880D991D880F991FFC018E
S1131130E155FE4F4F013E01FDE06F0E711C690148
S113114001E010E0D60111961C921E92F401449124
S113115021E030E080E090E0E42FF0E0AF01082EE1
S113116002C0559547950A94E2F740FF1BC06D9164
S11311707C911197A801022E02C0440F551F0A94B6
S1131180E2F7642B752BAC01440F551F180102C004
S1131190220C331C4A95E2F7A101462B572B1196DA
S11311A05C934E9301962E5F3F4F88309105B1F6C4
S11311B022E0C20ED11C3FEF831A930AC614D7044F
S11311C009F0C0CFE091A005F0E03196F695FE2F2E
S11311D0EE27F795E795DF01A40DB51DA156BE4F87
S11311E0E40DF51DAF01415E5E4FF70180819181F1
S11311F0F2E0EF0EF11C9C9311969C931197FA0167
S11312008083818312964E5F5F4FE614F70469F77B
S11312108CE08B0D80939F0526C0AB2DB0E09D0123
S11312202A5F3F4F21383105F0F42091A00590E06A
S1131230FC01EE0FFF1FE80FF91FEE0FFF1FE15532
S1131240FE4F30E8239FA00DB11D1124A156BE4FBF
S113125086E094919D93815031968111FACF86E076
S11312608B0D80939F052C960FB6F894DEBF0FBEAE
S1131270CDBFDF91CF911F910F91FF90EF90DF9041
S1131280CF90BF909F908F907F906F905F904F9082
S11312903F902F90089580934D010895CF93DF934D
S11312A0EC018881882331F021960E94CC07899132
S11312B08111FBCFDF91CF9108950F931F93CF93AB
S11312C00FE911E0C0E06C2F80E00E94710760E834
S11312D070E0C8010E941A07CF5F00581F4FC83042
S11312E091F7CF911F910F9108958091A1050895D1
S11312F08093A10581E008950F930FB7EF93FF93B7
S1131300E0913E06F0914006E395EF71EF1305C0BE
S1131310F091C100FF7DF093C100E0933E06F0E040
S1131320EE5BF94FE081E093C600FF91EF910FBFB0
S11313300F9118950F930FB79F939091C600EF9359
S1131340FF93E0914106F0913F06E395EF71FE179C
S113135031F0E0934106F0E0E25EF94F9083FF91B3
S1131360EF919F910FBF0F911895A0E1B0E0EBEBC7
S1131370F9E00C94320D7C011B016A01FC01178217
S11313801682838181FF44C39E012F5F3F4F390141
S1131390F7019381F10193FD859193FF81911F01E1
S11313A0882309F431C3853239F493FD859193FF81
S11313B081911F01853239F4B70190E00E945F10DA
S11313C056016501E5CF10E0512C912CFFE1F91590
S11313D0D8F08B3279F038F4803279F08332A1F48A
S11313E0F92DF0612EC08D3261F0803369F4292D1E
S11313F021602DC0392D3260932E892D8460982E62
S11314002AC0E92DE86015C097FC2DC020ED280FF7
S11314102A3088F496FE06C03AE0139F200D11246A
S1131420122F19C08AE0589E200D1124522EE92D46
S1131430E0629E2E10C08E3231F496FCE5C2F92D86
S1131440F0649F2E08C08C3621F4292D2068922E3A
S113145002C0883641F4F10193FD859193FF819197
S11314601F018111B3CF9BEB980F933020F4992D7A
S11314709061805E07C09BE9980F933008F066C1C5
S1131480992D9F7E96FF16E09F73992E853619F449
S11314909064992E08C0863621F4392F3068932E33
S11314A002C01111115097FE07C01C3350F444249C
S11314B04394410E27E00BC0183038F027E017E0C2
S11314C005C027E09CE3492E02C0212F412C560180
S11314D084E0A80EB11CF601608171818281938140
S11314E0042DA3010E94710F6C01F981FC87F0FFA8
S11314F002C0F3FF06C091FC06C092FE06C000E2E3
S113150005C00DE203C00BE201C000E08C858C70C5
S113151019F001115AC29BC297FE10C04C0CFC85F5
S1131520F4FF04C08A81813309F44A94141474F5D5
S113153028E0241578F588E0482E2CC096FC2AC0B3
S1131540812F90E08C159D059CF03CEFC3163FEF76
S1131550D30674F0892D8068982E0AC0E2E0F0E08A
S1131560EC0FFD1FE10FF11D8081803319F4115040
S11315701111F4CF97FE0EC044244394410E812FE1
S113158090E0C816D9062CF41C1904C044244394D2
S113159001C010E097FE06C01C141D0434F4C601FB
S11315A0019605C085E090E002C081E090E0011161
S11315B00196112331F0212F30E02F5F3F4F820F2E
S11315C0931F252D30E08217930714F4581A01C095
S11315D0512C892D897049F4552039F0B70180E2E6
S11315E090E00E945F105A94F7CF002329F0B701CE
S11315F0802F90E00E945F1093FC09C0552039F0C1
S1131600B70180E390E00E945F105A94F7CF97FEF1
S11316104CC04601D7FE02C0812C912CC60188190A
S11316209909F301E80FF91FFE87ED879601241944
S11316303109388B2F87012F10E01195019511097D
S11316403FEF8316930629F4B7018EE290E00E94DF
S11316505F10C814D9044CF08F85988988159905B2
S113166024F4ED85FE85818101C080E3F1E08F1AC9
S113167091082D853E852F5F3F4F3E872D8780162D
S113168091062CF0B70190E00E945F10D9CFC814E6
S1131690D90441F49A81963320F4953319F43C85A6
S11316A034FF81E3B70190E04EC08A81813319F0A1
S11316B09C859F7E9C87B70190E00E945F1011116A
S11316C005C094FC18C085E690E017C0B7018EE20F
S11316D090E00E945F101E5F82E001E0080FF301BA
S11316E0E80FF11D8081B70190E00E945F10802F08
S11316F00113F3CFE6CF85E490E0B7010E945F10B9
S1131700D7FC06C0C114D10441F4EC85E4FF05C044
S1131710D194C194D1088DE201C08BE2B70190E06D
S11317200E945F1080E32AE0C216D1042CF08F5F80
S1131730FAE0CF1AD108F7CFB70190E00E945F100A
S1131740B701C601C0960E945F1054C1833631F0C0
S1131750833779F0833509F056C020C0560132E052
S1131760A30EB11CF6018081898301E010E06301BE
S113177012C05601F2E0AF0EB11CF601C080D18058
S113178096FE03C0612F70E002C06FEF7FEFC601C9
S11317900E9454108C01F92DFF7714C0560122E0E9
S11317A0A20EB11CF601C080D18096FE03C0612F49
S11317B070E002C06FEF7FEFC6010E9449108C01F8
S11317C0F92DF0689F2EF3FD1AC0852D90E00817BF
S11317D01907A8F4B70180E290E00E945F105A94C0
S11317E0F4CFF60197FC859197FE81916F01B701C3
S11317F090E00E945F1051105A9401501109011594
S1131800110579F7F7C0843611F0893661F5560170
S113181097FE09C024E0A20EB11CF601608171811B
S1131820828193810AC0F2E0AF0EB11CF60160819F
S11318307181072E000C880B990BF92DFF769F2ED2
S113184097FF09C090958095709561957F4F8F4F54
S11318509F4FF0689F2E2AE030E0A3010E94DF1022
S1131860C82EC6183FC0092D853721F40F7E2AE003
S113187030E01DC0097F8F3691F018F4883559F097
S1131880C3C0803719F0883711F0BEC0006104FF6F
S113189009C0046007C094FE08C0066006C028E0C2
S11318A030E005C020E130E002C020E132E0560122
S11318B007FF09C084E0A80EB11CF60160817181A4
S11318C08281938108C0F2E0AF0EB11CF601608101
S11318D0718180E090E0A3010E94DF10C82EC61839
S11318E00F77902E96FE0BC0092D0E7FC11650F473
S11318F094FE0AC092FC08C0092D0E7E05C0DC2CA3
S1131900092D03C0DC2C01C0D12E04FF0DC0FE0143
S1131910EC0DF11D8081803311F4097E09C002FFB2
S113192006C0D394D39404C0802F867809F0D3944E
S113193003FD11C000FF06C01C2DD51480F4150D45
S11319401D190DC0D51458F4B70180E290E00E942F
S11319505F10D394F7CFD51410F45D1801C0512C47
S113196004FF10C0B70180E390E00E945F1002FF03
S113197017C001FD03C088E790E002C088E590E04D
S1131980B7010CC0802F867859F001FF02C08BE2AA
S113199001C080E207FD8DE2B70190E00E945F1074
S11319A0C11638F4B70180E390E00E945F10115033
S11319B0F7CFCA94F301EC0DF11D8081B70190E0DB
S11319C00E945F10C110F5CF15C0F4E0F51560F565
S11319D084E0581A93FE1FC0011127C02C8523FFF1
S11319E02AC008E610E0392D3071932EF801849155
S11319F0811124C0552009F4E4CCB70180E290E0C1
S1131A000E945F105A94F6CFF7018681978126C011
S1131A108FEF9FEF23C0B70180E290E00E945F1038
S1131A205A945110F8CFD8CF512CB701802F90E0A1
S1131A300E945F10D3CF0CE610E0D5CF91108052F6
S1131A40B70190E00E945F100F5F1F4FCFCF23E0DC
S1131A50251510F483E0BDCF512CC0CF6096E2E190
S1131A600C944E0D2F923F924F925F926F927F9201
S1131A708F929F92AF92BF92CF92DF92EF92FF929A
S1131A800F931F93CF93DF93CDB7DEB7CA1BDB0B46
S1131A900FB6F894DEBF0FBECDBF09942A883988EB
S1131AA048885F846E847D848C849B84AA84B984F2
S1131AB0C884DF80EE80FD800C811B81AA81B981FE
S1131AC0CE0FD11D0FB6F894DEBF0FBECDBFED0112
S1131AD008955058BB27AA270E94810D0C94C50E67
S1131AE00E94B70E38F00E94BE0E20F039F49F3FDA
S1131AF019F426F40C94B40E0EF4E095E7FB0C9460
S1131B00AE0EE92F0E94D60E58F3BA176207730778
S1131B108407950720F079F4A6F50C94F80E0EF4DA
S1131B20E0950B2EBA2FA02D0B01B90190010C01E9
S1131B30CA01A0011124FF27591B99F0593F50F401
S1131B40503E68F11A16F040A22F232F342F442759
S1131B50585FF3CF469537952795A795F040539551
S1131B60C9F77EF41F16BA0B620B730B840BBAF021
S1131B709150A1F0FF0FBB1F661F771F881FC2F78C
S1131B800EC0BA0F621F731F841F48F487957795A0
S1131B906795B795F7959E3F08F0B0CF9395880F5A
S1131BA008F09927EE0F9795879508950E948A0E5D
S1131BB008F481E008950E94EF0D0C94C50E0E9474
S1131BC0BE0E58F00E94B70E40F029F45F3F29F092
S1131BD00C94AE0E51110C94F90E0C94B40E0E9498
S1131BE0D60E68F39923B1F3552391F3951B550B46
S1131BF0BB27AA2762177307840738F09F5F5F4FDC
S1131C00220F331F441FAA1FA9F335D00E2E3AF01A
S1131C10E0E832D091505040E695001CCAF72BD032
S1131C20FE2F29D0660F771F881FBB1F2617370783
S1131C304807AB07B0E809F0BB0B802DBF01FF27B5
S1131C4093585F4F3AF09E3F510578F00C94AE0ED6
S1131C500C94F90E5F3FE4F3983ED4F386957795A0
S1131C606795B795F7959F5FC9F7880F911D96956E
S1131C70879597F90895E1E0660F771F881FBB1FCA
S1131C80621773078407BA0720F0621B730B840B77
S1131C90BA0BEE1F88F7E0950895E89409C097FB06
S1131CA03EF490958095709561957F4F8F4F9F4F2F
S1131CB09923A9F0F92F96E9BB279395F695879573
S1131CC077956795B795F111F8CFFAF4BB0F11F436
S1131CD060FF1BC06F5F7F4F8F4F9F4F16C08823DD
S1131CE011F096E911C0772321F09EE8872F762F13
S1131CF005C0662371F096E8862F70E060E02AF054
S1131D009A95660F771F881FDAF7880F969587953F
S1131D1097F90895990F0008550FAA0BE0E8FEEF14
S1131D2016161706E807F907C0F012161306E4079B
S1131D30F50798F0621B730B840B950B39F40A2694
S1131D4061F0232B242B252B21F408950A2609F472
S1131D50A140A6958FEF811D811D089597F99F6776
S1131D6080E870E060E008959FEF80EC089500241F
S1131D700A941616170618060906089500240A94EC
S1131D8012161306140605060895092E0394000C72
S1131D9011F4882352F0BB0F40F4BF2B11F460FF01
S1131DA004C06F5F7F4F8F4F9F4F089557FD90582A
S1131DB0440F551F59F05F3F71F04795880F97FB0B
S1131DC0991F61F09F3F79F08795089512161306C5
S1131DD01406551FF2CF4695F1DF08C016161706F4
S1131DE01806991FF1CF8695710561050894089529
S1131DF0E894BB2766277727CB0197F908950E94BB
S1131E008A0E08F48FEF08950E94170F0C94C50EE4
S1131E100E94B70E38F00E94BE0E20F0952311F0F8
S1131E200C94AE0E0C94B40E11240C94F90E0E9472
S1131E30D60E70F3959FC1F3950F50E0551F629F26
S1131E40F001729FBB27F00DB11D639FAA27F00D0F
S1131E50B11DAA1F649F6627B00DA11D661F829F36
S1131E602227B00DA11D621F739FB00DA11D621F1B
S1131E70839FA00D611D221F749F3327A00D611D38
S1131E80231F849F600D211D822F762F6A2F11241A
S1131E909F5750409AF0F1F088234AF0EE0FFF1F4D
S1131EA0BB1F661F771F881F91505040A9F79E3FA4
S1131EB0510580F00C94AE0E0C94F90E5F3FE4F3E0
S1131EC0983ED4F3869577956795B795F795E795FA
S1131ED09F5FC1F7FE2B880F911D9695879597F903
S1131EE00895283008F027E03327DA01990F311DCF
S1131EF087FD916000966105710539F432602E5FAB
S1131F003D9330E32A95E1F708959F3F30F0803800
S1131F107105610509F03C5F3C5F3D93913008F029
S1131F208068911DDF93CF931F930F93FF92EF92DD
S1131F30192F987F9695E92F96959695E90FFF2787
S1131F40E653FF4F99273327EE24FF24A701E70127
S1131F5005900894079428F4360FE71EF81E491FCD
S1131F60511D660F771F881F991F0694A1F70590CE
S1131F70079428F4E70EF81E491F561FC11D770F5A
S1131F80881F991F661F0694A1F70590079428F4EB
S1131F90F80E491F561FC71FD11D880F991F661FB2
S1131FA0771F0694A1F70590079420F4490F561F54
S1131FB0C71FD81F990F661F771F881F0694A9F79C
S1131FC084911095177041F0D695C795579547950C
S1131FD0F794E7941A95C1F7E0E7F0E06894159058
S1131FE0159135916591959105907FE27395E1186E
S1131FF0F10A430B560BC90BD009C0F7E10CF11ED3
S1132000431F561FC91FD01D7EF4703311F48A95E7
S1132010E6CFE894015030F0080F0AF400270217C5
S113202008F4202F2395022F7A3328F079E37D9347
S11320302A95E9F710C07D932A9589F60694979519
S11320406795379517951794E118F10A430B560BCA
S1132050C90BD00998F023957E9173957A3308F0D3
S113206070E37C932013B8F77E9170617D9330F018
S1132070839571E37D9370E32A95E1F71124EF9042
S1132080FF900F911F91CF91DF91992787FD909534
S11320900895FC010590615070400110D8F78095B7
S11320A090958E0F9F1F0895FC0161507040019020
S11320B00110D8F7809590958E0F9F1F08950F9368
S11320C01F93CF93DF93FB01238121FD03C08FEF87
S11320D09FEF2CC022FF16C0468157812481358191
S11320E04217530744F4A081B1819D012F5F3F4FF4
S11320F0318320838C93268137812F5F3F4F378331
S1132100268314C08B01EC01FB010084F185E02DD2
S11321100995892BE1F6D80116968D919C91179714
S1132120019617969C938E931697CE01DF91CF91CB
S11321301F910F910895AEE0B0E0E1EAF0E10C9454
S1132140400D0D891E8986E08C831A8309838FEFE5
S11321509FE79E838D83AE01475E5F4F6F89788DC5
S1132160CE0101960E94B509EF81F885E00FF11FB9
S113217010822E96E4E00C945C0DAEE0B0E0E3EC4B
S1132180F0E10C94400D0D891E898EE08C831A8336
S113219009838FEF9FE79E838D83AE01475E5F4F78
S11321A06F89788DCE0101960E94B509EF81F8857B
S11321B0E00FF11F10822E96E4E00C945C0DFA01FE
S11321C0AA27283051F1203181F1E8946F936E7F72
S11321D06E5F7F4F8F4F9F4FAF4FB1E03ED0B4E063
S11321E03CD0670F781F891F9A1FA11D680F791FA4
S11321F08A1F911DA11D6A0F711D811D911DA11DB5
S113220020D009F468943F912AE0269F11243019C4
S1132210305D3193DEF6CF010895462F4770405D5F
S11322204193B3E00FD0C9F7F6CF462F4F70405D0E
S11322304A3318F0495D31FD4052419302D0A9F769
S1132240EACFB4E0A6959795879577956795BA9563
S1132250C9F700976105710508959B01AC010A2E29
S113226006945795479537952795BA95C9F7620F00
S1112270731F841F951FA01D0895F894FFCFBF
S113227E000102019101490100004E01020000001B
S113228E009506006F0100005101000001000000DE
S113229E008B06008301430100005001030000007F
S11322AE009506006A010000000000000000000016
S11322BE008C068201850188018B019201010000C8
S11322CE01CDCC4C3E4D656E75003E002000253090
S11322DE352E3266206D4A002530352E316620208B
S11322EE4A006D61783A2530352E316C66206D2F9B
S11322FE7300525500454E0055410053696E676C8C
S10F230E65004D756C7469706C6500000E
S9030000FC
